:020000020000FC
:1000000029C03BC03DC018951895189518951895AE
:100010001895189506060707060706070706070638
:10002000070606060606060606060606060606066F
:10003000060606060606060606070706060706065D
:100040000606060706070607070606060706070749
:100050000706070700270FBF0FE90DBF00E007BB2A
:1000600006E008BB00E60BBF02E205BF04E005BBEB
:10007000E4E1F0E085917894FFCF88BB85911895F5
:1000800006B302FD08C0B898C0989FB7E4E1F0E05D
:0A00900085919FBF01C0B89A189532
:00000001FF
